:020000041000EA
:1010000020050020191000100000000099100010A9
:1010100000040100000000801149124A124B00F048
:1010200018F8124880471249124A134B00F011F881
:101030001249134A134B00F00CF81349134A0020CD
:10104000521A02DD043A8850FCDC114880471148EE
:1010500080479B1A03DD043BC858D050FBDC704727
:10106000A44800100C0000201C010020F9390010D9
:10107000B44900102005002090050020244A0010EB
:10108000900500209005002090050020100600200B
:1010900099440010213F0010FEE7000080B584B0A5
:1010A00000AFF860B9607A60FB68064A1A60FB68B6
:1010B000BA685A60FB687A689A60FB68181CBD467B
:1010C00004B080BD5847001080B582B000AF786092
:1010D0007B68074A1A600023002B03D07B68181C2A
:1010E00003F066F87B68181CBD4602B080BDC046A0
:1010F0005847001080B582B000AF78607B68181C3C
:10110000FFF7E2FF7B68181C03F052F87B68181C9D
:10111000BD4602B080BDC04680B582B000AF7860E9
:101120007B685B687A68526811687A689268101CFC
:10113000012282400A431A60BD4602B080BDC0460B
:1011400080B582B000AF78607B685B687A6852686F
:1011500011687A689268101C01228240D2430A40CA
:101160001A60BD4602B080BD80B582B000AF786025
:1011700039607B68044A1A607B683A685A607B6809
:10118000181CBD4602B080BD6847001080B584B011
:1011900000AFF860B9607A60FB68064A1A60FB68C5
:1011A000BA685A60FB687A689A60FB68181CBD468A
:1011B00004B080BD6847001080B582B000AF786091
:1011C0007B68074A1A600023002B03D07B68181C39
:1011D00002F0EEFF7B68181CBD4602B080BDC04621
:1011E0006847001080B582B000AF78607B68181C3B
:1011F000FFF7E2FF7B68181C02F0DAFF7B68181C1F
:10120000BD4602B080BDC04680B584B000AF7860F6
:101210000A1CFB1C1A700023FB6014E07B681B682F
:101220000C331B68FA1C1178FA6811410A1C012161
:101230000A40511E8A41D2B27968081C111C984795
:10124000FB680133FB60FB68072BE7DDBD4604B09C
:1012500080BDC04680B582B000AF78600A1CFB1C20
:101260001A70FB1C1B78002B0FD07B689B681B68D7
:101270007A689268126811687A6892685268101CDD
:10128000012282400A431A600FE07B689B681B685A
:101290007A689268126811687A6892685268101CBD
:1012A00001228240D2430A401A60BD4602B080BD8E
:1012B00080B584B000AF78600A1CFB1C1A70002354
:1012C000FB6014E07B681B6814331B68FA1C117800
:1012D000FA6811410A1C01210A40511E8A41D2B20A
:1012E0007968081C111C9847FB680133FB60FB6898
:1012F000072BE7DDBD4604B080BDC04680B582B097
:1013000000AF78600A1CFB1C1A707B68181C00F088
:1013100031F87B681B680C331B687968FA1C1278FB
:10132000081C111C98477B68181C00F003F8BD4688
:1013300002B080BD80B582B000AF78607B68181CB9
:10134000002100F039F87B685B681B687A68526896
:10135000126811687A6852685268101C0122824033
:101360000A431A607B68181C002100F025F8BD466E
:1013700002B080BD80B582B000AF78607B68181C79
:10138000002100F019F87B685B681B687A68526876
:10139000126811687A6852685268101C01228240F3
:1013A000D2430A401A607B68181C002100F004F840
:1013B000BD4602B080BDC04680B582B000AF786047
:1013C00039603B685A1E3A605A1E9341DBB2002BCB
:1013D000F7D1BD4602B080BD80B582B000AF786065
:1013E00039603B68181CBD4602B080BD80B582B034
:1013F00000AF786039607A683B68101C191CFFF7F1
:10140000B3FE7B68054A1A607B680C33181C00F039
:10141000A7F87B68181CBD4602B080BDA04700102D
:1014200080B582B000AF78607B680B4A1A607B6839
:101430000C33181C00F0A2F87B68181CFFF7BCFEE8
:101440000023002B03D07B68181C02F0B1FE7B68E0
:10145000181CBD4602B080BDA047001080B582B008
:1014600000AF78607B68181CFFF7DAFF7B68181CF8
:1014700002F09EFE7B68181CBD4602B080BDC046CF
:1014800080B584B000AF786039600023FB6039E03C
:101490007B68181CFFF76EFF0023BB601EE07B68B3
:1014A0000C331A1CBB68101C191C00F093F8031CA9
:1014B0001B681A680C3212683868B96841180978D4
:1014C000081CF9680841011C01200140481E8141A7
:1014D000C9B2181C9047BB680133BB607B680C33F2
:1014E000181C00F067F8021CBB6893429B415B42EA
:1014F000DBB2002BD3D17B68181CFFF71BFFFB6806
:101500000133FB60FB68072BC2DDBD4604B080BD24
:1015100080B582B000AF786039607B680C331A1CEC
:101520003B1C101C191C00F063F8BD4602B080BDC6
:1015300080B582B000AF78607B68181CFFF71AFF97
:10154000BD4602B080BDC04680B582B000AF7860B5
:101550007B68181CFFF7EEFEBD4602B080BDC0469A
:1015600080B582B000AF78607B68181C00F076F818
:101570007B68181CBD4602B080BDC046B0B582B0C5
:1015800000AF78607B681D687B685C687B68181CAE
:1015900000F090F8031C281C211C1A1C00F094F881
:1015A0007B68181C00F068F87B68181CBD4602B008
:1015B000B0BDC04680B582B000AF78607B685B6824
:1015C0001A1C7B681B68D31A9B10181CBD4602B0FE
:1015D00080BDC04680B582B000AF786039607B685E
:1015E0001A683B689B00D318181CBD4602B080BD2A
:1015F00080B582B000AF786039607B685A687B68DC
:101600009B689A420ED079687B685A683B68081CD0
:10161000111C1A1C00F068F87B685B681A1D7B6857
:101620005A600AE07B68181C00F03AF9011C7A68DD
:101630003B68101C1A1C00F069F8BD4602B080BD62
:1016400080B582B000AF78607B68181C00F050F95C
:101650007B68181CBD4602B080BDC04680B582B014
:1016600000AF78607B68181C00F02CF97B68181CB0
:10167000BD4602B080BDC04690B583B000AF786073
:101680007B681A687B689B68191C7B681B68CB1A8F
:101690009B101C1C7B68181C111C221C00F036F9C6
:1016A0007B68181CFFF7CCFF7B68181CBD4603B095
:1016B00090BDC04680B582B000AF78607B68181CD2
:1016C000BD4602B080BDC04680B584B000AFF860B2
:1016D000B9607A60FA68BB68101C191C00F02AF91E
:1016E000BD4604B080BDC04680B584B000AFF86090
:1016F000B9607A60F968BA687B68081C111C1A1C0A
:1017000000F026F9BD4604B080BDC046F0B58BB0F0
:1017100000AFF860B9607A60FB685A68FB689B6844
:101720009A422ED0F968FB685A68FB685B68043BF4
:10173000081C111C1A1CFFF7D7FFFB685B681A1DF9
:10174000FB685A607B681B687B620823FB18181CC7
:1017500000F012F9031C1968FB685B68083B1A1C4F
:10176000FB685B68043B081C111C1A1C00F00EF996
:101770000823FB18181C00F025F9031C7A6A1A606C
:1017800089E0FA68454B101C01211A1C00F024F96D
:10179000031C3B62FB68181C00F06CF9031C3B61E6
:1017A0000823FA181023FB18101C191C00F072F9FA
:1017B000031CFB61FA683B6A101C191C00F082F9DB
:1017C000031CBB61BB697B61F968FB699B00BA695B
:1017D000D2187B68081C111C1A1CFFF785FF002318
:1017E0007B61FB681D680823FB18181C00F0C4F817
:1017F000031C1C68FB68181CFFF75CFF061CBB6918
:10180000281C211C1A1C331C00F072F9031C7B617C
:101810007B6904337B610823FB18181C00F0ACF8CB
:10182000031C1D68FB685C68FB68181CFFF742FF1F
:10183000061C7B69281C211C1A1C331C00F058F95B
:10184000031C7B61FB681D68FB685C68FB68181CF7
:10185000FFF730FF031C281C211C1A1CFFF734FF64
:10186000F968FB681A68FB689B68181CFB681B68B2
:10187000C31A9B10081C111C1A1C00F047F8FB68C7
:10188000BA691A60FB687A695A603B6A9B00BA6958
:10189000D218FB689A60BD460BB0F0BD80470010BF
:1018A00080B584B000AF78607B6804330C22BA182E
:1018B000101C191C00F02EF9FB68181CBD4604B062
:1018C00080BDC04680B582B000AF78607B68181CD0
:1018D00000F02EF97B6800221A607B6800225A60B3
:1018E0007B6800229A607B68181CBD4602B080BDF0
:1018F00080B582B000AF78607B68181C00F026F9D4
:101900007B68181CBD4602B080BDC04680B584B05F
:1019100000AFF860B9607A60BB68002B07D0F96847
:10192000BA687B68081C111C1A1C00F019F9BD4626
:1019300004B080BD80B582B000AF786039607A684D
:101940003B68101C191C00F01DF9BD4602B080BD9B
:1019500080B584B000AFF860B9607A60BB680420DD
:10196000191CFFF739FD031E02D07A6812681A604D
:10197000BD4604B080BDC04680B582B000AF78607F
:101980007B68181CBD4602B080BDC04690B585B0CE
:1019900000AFF860B9607A60FB68181C00F0FAF8D4
:1019A000041CBB68181C00F0F5F8021C7B68201CA6
:1019B000111C1A1C00F0FCF8031C181CBD4605B0D5
:1019C00090BDC04680B582B000AF78607B681B6870
:1019D000181CBD4602B080BD90B587B000AFF8605E
:1019E000B9607A60FB68181C00F002F9041CFB68FF
:1019F000181CFFF7DFFD031CE21ABB689A429B41EB
:101A00005B42DBB2002B03D07B68181C02F0DDFBCD
:101A1000FB68181CFFF7CEFD041CFB68181CFFF7C1
:101A2000C9FD031C3B611023FA180823FB18101C86
:101A3000191C00F0EFF8031C1B68E3187B61FB68BE
:101A4000181CFFF7B7FD021E7B699A4207D8FB6896
:101A5000181C00F0CDF8021E7B699A4205D2FB6883
:101A6000181C00F0C5F8031C00E07B69181CBD467B
:101A700007B090BD80B584B000AF78607B680C2261
:101A8000BA18101C191C00F045F8FB68181CBD465C
:101A900004B080BD90B583B000AF786039607B68DA
:101AA000181CFFF769FF031C1B681C1C3B68181CF3
:101AB000FFF762FF031C1B68E31A9B10181CBD464E
:101AC00003B090BD80B582B000AF786039603B68EC
:101AD000002B07D07A683B68101C191C00F0ACF88A
:101AE000031C00E00023181CBD4602B080BDC046A8
:101AF00080B584B000AFF860B9607A603B60F86888
:101B0000B9687A683B6800F0A9F8031C181CBD4648
:101B100004B080BD80B582B000AF786039603B68AA
:101B20001A687B681A607B68181CBD4602B080BDCD
:101B300080B582B000AF78607B68181C00F0A2F816
:101B40007B68181CBD4602B080BDC04680B582B01F
:101B500000AF78607B68181CBD4602B080BDC046EF
:101B600080B584B000AFF860B9607A60F968BA688F
:101B70007B68081C111C1A1C00F08EF8BD4604B0CE
:101B800080BDC04680B582B000AF78603960BD4688
:101B900002B080BD80B582B000AF78607B68181C51
:101BA00000F088F8031C181CBD4602B080BDC0467A
:101BB000B0B584B000AFF860B9607A60FB68181CFB
:101BC00000F082F8051CBB68181C00F07DF8041CAE
:101BD0007B68181C00F078F8031C281C211C1A1CB8
:101BE00000F080F8031C181CBD4604B0B0BDC04610
:101BF00080B582B000AF78607B68181C00F098F860
:101C0000031C181C00F086F8031C181CBD4602B00B
:101C100080BDC04680B582B000AF786039607B6817
:101C20001A683B681B689A4201D23B6800E07B68F7
:101C3000181CBD4602B080BD80B582B000AF786090
:101C400039607A683B68101C191C002200F07AF891
:101C5000031C181CBD4602B080BDC04680B584B0D0
:101C600000AFF860B9607A603B60F968BA687B6879
:101C7000081C111C1A1C00F083F8031C181CBD461C
:101C800004B080BD80B582B000AF78607B68181C5E
:101C9000BD4602B080BDC04680B584B000AFF860DC
:101CA000B9607A60BB68181C02F082FABD4604B0C5
:101CB00080BDC04680B582B000AF78607B68181CDC
:101CC000BD4602B080BDC04680B582B000AF78602E
:101CD0007B68181CFFF7EEFF031C181CBD4602B002
:101CE00080BDC04680B586B000AFF860B9607A604C
:101CF0001723FB1801221A70F968BA687B68081C60
:101D0000111C1A1C00F054F8031C181CBD4606B028
:101D100080BDC04680B582B000AF78607B68181C7B
:101D200000F06AF8031C181CBD4602B080BDC04616
:101D300080B582B000AF78607B68181CBD4602B0E9
:101D400080BDC04680B584B000AFF860B9607A60ED
:101D5000FB68181C00F050F8021CBB689A429B41BB
:101D60005B42DBB2002B01D002F02CFABB689B0077
:101D7000181C02F00BFA031C181CBD4604B080BDF1
:101D800080B586B000AFF860B9607A601723FB18A1
:101D900001221A70F968BA687B68081C111C1A1CA9
:101DA00000F036F8031C181CBD4606B080BDC046C6
:101DB00080B586B000AFF860B9607A60BA68FB6839
:101DC000D31A9B107B617B69002B0CD07B699B0035
:101DD0005B427A68D1187B699B00FA68081C111C69
:101DE0001A1C02F093FB7B699B005B427A68D31854
:101DF000181CBD4606B080BD80B582B000AF7860CB
:101E0000024B181CBD4602B080BDC046FFFFFF3F1D
:101E100080B584B000AFF860B9607A60F968BA68DC
:101E20007B68081C111C1A1C00F006F8031C181C07
:101E3000BD4604B080BDC04690B585B000AFF86027
:101E4000B9607A60FB68181CFFF7A4FE041CBB682D
:101E5000181CFFF79FFE021C7B68201C111C1A1C1B
:101E600000F006F8031C181CBD4605B090BDC04626
:101E7000B0B584B000AFF860B9607A60FB68181C38
:101E8000FFF722FF051CBB68181CFFF71DFF041C91
:101E90007B68181CFFF718FF031C281C211C1A1C48
:101EA00000F006F8031C181CBD4604B0B0BDC046C7
:101EB00080B586B000AFF860B9607A601723FB1870
:101EC00001221A70F968BA687B68081C111C1A1C78
:101ED00000F006F8031C181CBD4606B080BDC046C5
:101EE00080B586B000AFF860B9607A60BA68FB6808
:101EF000D31A9B107B617B69002B08D07B699B0008
:101F00007968FA68081C111C1A1C02F0FFFA7B6938
:101F10009B007A68D318181CBD4606B080BDC04629
:101F200080B582B000AF78607B68181C00F074F850
:101F30007B68181CBD4602B080BDC046B0B582B0FB
:101F400000AF78607B681D687B685C687B68181CE4
:101F500000F08CF8031C281C211C1A1C00F090F8BF
:101F60007B68181C00F066F87B68181CBD4602B040
:101F7000B0BDC04680B582B000AF786039607B6884
:101F80005A687B689B689A420ED079687B685A6869
:101F90003B68081C111C1A1C00F082F87B685B6807
:101FA0005A1C7B685A600AE07B68181C00F054F9E0
:101FB000011C7A683B68101C1A1C00F083F8BD46AF
:101FC00002B080BD80B582B000AF786039607B68B8
:101FD0001A683B68D318181CBD4602B080BDC046C5
:101FE00080B582B000AF78607B685B681A1C7B6844
:101FF0001B68D31A181CBD4602B080BD80B582B0E4
:1020000000AF78607B68181C00F04EF97B68181CE4
:10201000BD4602B080BDC04680B582B000AF7860DA
:102020007B68181C00F02AF97B68181CBD4602B0BA
:1020300080BDC04690B583B000AF78607B681A68F9
:102040007B689B68191C7B681B68CB1A1C1C7B680F
:10205000181C111C221C00F035F97B68181CFFF7B6
:10206000CDFF7B68181CBD4603B090BD80B582B023
:1020700000AF78607B68181CBD4602B080BDC046CA
:1020800080B584B000AFF860B9607A60FA68BB6868
:10209000101C191C00F02AF9BD4604B080BDC046D2
:1020A00080B584B000AFF860B9607A60F968BA684A
:1020B0007B68081C111C1A1C00F026F9BD4604B0F0
:1020C00080BDC046F0B58BB000AFF860B9607A60F3
:1020D000FB685A68FB689B689A4231D0F968FB68D4
:1020E0005A68FB685B68013B081C111C1A1CFFF74F
:1020F000D7FFFB685B685A1CFB685A602723FB18F4
:102100007A6812781A700823FB18181C00F010F96E
:10211000031C1968FB685B689A1EFB685B68013BDF
:10212000081C111C1A1C00F00DF90823FB18181CC0
:1021300000F024F9021C2723FB181B78137086E09B
:10214000FA68444B101C01211A1C00F021F9031CF1
:102150003B62FB68181C00F069F9031C3B61082313
:10216000FA181023FB18101C191C00F06FF9031C3F
:10217000FB61FA683B6A101C191C00F07FF9031C14
:10218000BB61BB697B61F968BA69FB69D2187B687E
:10219000081C111C1A1CFFF783FF00237B61FB68DE
:1021A0001D680823FB18181C00F0C2F8031C1C68EB
:1021B000FB68181CFFF75AFF061CBB69281C211C72
:1021C0001A1C331C00F070F9031C7B617B6901331E
:1021D0007B610823FB18181C00F0AAF8031C1D687B
:1021E000FB685C68FB68181CFFF740FF061C7B69F6
:1021F000281C211C1A1C331C00F056F9031C7B619F
:10220000FB681D68FB685C68FB68181CFFF72EFF05
:10221000031C281C211C1A1CFFF732FFF968FB68FD
:102220001A68FB689B68181CFB681B68C31A081CAB
:10223000111C1A1C00F046F8FB68BA691A60FB68AA
:102240007A695A60BA693B6AD218FB689A60BD46DF
:102250000BB0F0BDC047001080B584B000AF78600F
:102260007B6804330C22BA18101C191C00F02EF9DC
:10227000FB68181CBD4604B080BDC04680B582B066
:1022800000AF78607B68181C00F02EF97B68002294
:102290001A607B6800225A607B6800229A607B6823
:1022A000181CBD4602B080BD80B582B000AF78601A
:1022B0007B68181C00F026F97B68181CBD4602B02C
:1022C00080BDC04680B584B000AFF860B9607A6068
:1022D000BB68002B07D0F968BA687B68081C111C22
:1022E0001A1C00F019F9BD4604B080BD80B582B05B
:1022F00000AF786039607A683B68101C191C00F0E8
:102300001DF9BD4602B080BD80B584B000AFF86055
:10231000B9607A60BB680120191CFFF75DF8031EE5
:1023200002D07A6812781A70BD4604B080BDC046EB
:1023300080B582B000AF78607B68181CBD4602B0E3
:1023400080BDC04690B585B000AFF860B9607A60D6
:10235000FB68181C00F0FAF8041CBB68181C00F09D
:10236000F5F8021C7B68201C111C1A1C00F0FCF8FC
:10237000031C181CBD4605B090BDC04680B582B098
:1023800000AF78607B681B68181CBD4602B080BD3A
:1023900090B587B000AFF860B9607A60FB68181C30
:1023A00000F002F9041CFB68181CFFF719FE031C5F
:1023B000E21ABB689A429B415B42DBB2002B03D01E
:1023C0007B68181C01F001FFFB68181CFFF708FE72
:1023D000041CFB68181CFFF703FE031C3B61102361
:1023E000FA180823FB18101C191CFFF713FC031C18
:1023F0001B68E3187B61FB68181CFFF7F1FD021EE8
:102400007B699A4207D8FB68181C00F0CDF8021EC1
:102410007B699A4205D2FB68181C00F0C5F8031CC2
:1024200000E07B69181CBD4607B090BD80B584B044
:1024300000AF78607B680C22BA18101C191C00F0E1
:1024400045F8FB68181CBD4604B080BD90B583B04C
:1024500000AF786039607B68181CFFF769FF031CC8
:102460001B681C1C3B68181CFFF762FF031C1B68E1
:10247000E31A181CBD4603B090BDC04680B582B0BB
:1024800000AF786039603B68002B07D07A683B6802
:10249000101C191C00F09AF8031C00E00023181C03
:1024A000BD4602B080BDC04680B584B000AFF860C4
:1024B000B9607A603B60F868B9687A683B6800F098
:1024C00097F8031C181CBD4604B080BD80B582B0CF
:1024D00000AF786039603B681A687B681A607B6877
:1024E000181CBD4602B080BD80B582B000AF7860D8
:1024F0007B68181C00F090F87B68181CBD4602B081
:1025000080BDC04680B582B000AF78607B68181C83
:10251000BD4602B080BDC04680B584B000AFF86053
:10252000B9607A60F968BA687B68081C111C1A1CCB
:1025300000F07CF8BD4604B080BDC04680B582B0D6
:1025400000AF78603960BD4602B080BD80B582B012
:1025500000AF78607B68181C00F076F8031C181C2C
:10256000BD4602B080BDC046B0B584B000AFF860D3
:10257000B9607A60FB68181C00F070F8051CBB6835
:10258000181C00F06BF8041C7B68181C00F066F83F
:10259000031C281C211C1A1C00F06EF8031C181CBC
:1025A000BD4604B0B0BDC04680B582B000AF786013
:1025B0007B68181C00F086F8031C181C00F074F8E7
:1025C000031C181CBD4602B080BDC04680B582B059
:1025D00000AF786039607A683B68101C191C0022D3
:1025E00000F07AF8031C181CBD4602B080BDC0463E
:1025F00080B584B000AFF860B9607A603B60F9687C
:10260000BA687B68081C111C1A1C00F083F8031CB4
:10261000181CBD4604B080BD80B582B000AF7860A4
:102620007B68181CBD4602B080BDC04680B584B032
:1026300000AFF860B9607A60BB68181C01F0B8FDA3
:10264000BD4604B080BDC04680B582B000AF7860A2
:102650007B68181CBD4602B080BDC04680B582B004
:1026600000AF78607B68181CFFF7EEFF031C181C96
:10267000BD4602B080BDC04680B586B000AFF860F0
:10268000B9607A601723FB1801221A70F968BA68DA
:102690007B68081C111C1A1C00F054F8031C181C41
:1026A000BD4606B080BDC04680B582B000AF786040
:1026B0007B68181C00F066F8031C181CBD4602B0AD
:1026C00080BDC04680B582B000AF78607B68181CC2
:1026D000BD4602B080BDC04680B584B000AFF86092
:1026E000B9607A60FB68181C00F04CF8021CBB68EB
:1026F0009A429B415B42DBB2002B01D001F062FDAC
:10270000BB68181C01F042FD031C181CBD4604B038
:1027100080BDC04680B586B000AFF860B9607A6011
:102720001723FB1801221A70F968BA687B68081C25
:10273000111C1A1C00F030F8031C181CBD4606B012
:1027400080BDC04680B586B000AFF860B9607A60E1
:10275000BA68FB68D31A7B617B69002B0AD07B695E
:102760005B427A68D1187B69FA68081C111C1A1C34
:1027700001F0CCFE7B695B427A68D318181CBD4619
:1027800006B080BD80B582B000AF786001235B42A7
:10279000181CBD4602B080BD80B584B000AFF860A3
:1027A000B9607A60F968BA687B68081C111C1A1C49
:1027B00000F006F8031C181CBD4604B080BDC046DE
:1027C00090B585B000AFF860B9607A60FB68181CFE
:1027D000FFF7BCFE041CBB68181CFFF7B7FE021C09
:1027E0007B68201C111C1A1C00F006F8031C181C26
:1027F000BD4605B090BDC046B0B584B000AFF8602E
:10280000B9607A60FB68181CFFF728FF051CBB68DD
:10281000181CFFF723FF041C7B68181CFFF71EFF22
:10282000031C281C211C1A1C00F006F8031C181C91
:10283000BD4604B0B0BDC04680B586B000AFF860FC
:10284000B9607A601723FB1801221A70F968BA6818
:102850007B68081C111C1A1C00F006F8031C181CCD
:10286000BD4606B080BDC04680B586B000AFF860FA
:10287000B9607A60BA68FB68D31A7B617B69002B08
:1028800007D07B697968FA68081C111C1A1C01F0D2
:102890003DFE7B697A68D318181CBD4606B080BD22
:1028A00080B582B000AF78607B68084A1A607B68A8
:1028B0000433181C00F08EF87B681433181CFFF7E3
:1028C0002FFB7B68181CBD4602B080BDE04700109E
:1028D00080B582B000AF78607B680C4A1A607B6874
:1028E0001433181CFFF72AFB7B680433181C00F014
:1028F0007FF80023002B03D07B68181C01F058FCE4
:102900007B68181CBD4602B080BDC046E047001081
:1029100080B582B000AF78607B68181CFFF7D8FFE5
:102920007B68181C01F044FC7B68181CBD4602B093
:1029300080BDC04680B582B000AF78607B6814333C
:10294000181CFFF74DFB031C181CBD4602B080BDD0
:1029500080B586B000AFF860B9607A6000237B6113
:102960000BE07B69BA68D3181B78FA68101C191C35
:1029700000F00AF87B6901337B617A697B689A42CF
:10298000EFDBBD4606B080BD80B582B000AF786099
:102990000A1CFB1C1A707B6814331A1CFB1C101CCD
:1029A000191CFFF7E7FABD4602B080BD80B582B0C2
:1029B00000AF786039607B6814331A1C3B68101CC8
:1029C000191CFFF7FFFA031C1B78181CBD4602B048
:1029D00080BDC04680B582B000AF78607B68181CAF
:1029E00000F030F87B68181CBD4602B080BDC046C0
:1029F000B0B582B000AF78607B681D687B685C68AA
:102A00007B68181C00F04AF8031C281C211C1A1CA7
:102A100000F04EF87B68181C00F022F87B68181C48
:102A2000BD4602B0B0BDC04680B582B000AF786090
:102A30007B68181C00F062F87B68181CBD4602B069
:102A400080BDC04680B582B000AF78607B68181C3E
:102A500000F03EF87B68181CBD4602B080BDC04641
:102A600090B583B000AF78607B681A687B689B681C
:102A7000191C7B681B68CB1A9B101C1C7B68181CDC
:102A8000111C221C00F048F87B68181CFFF7CCFFD3
:102A90007B68181CBD4603B090BDC04680B582B0AF
:102AA00000AF78607B68181CBD4602B080BDC04690
:102AB00080B584B000AFF860B9607A60FA68BB682E
:102AC000101C191C00F03CF8BD4604B080BDC04687
:102AD00080B582B000AF78607B68181C00F03EF8CB
:102AE0007B6800221A607B6800225A607B680022A3
:102AF0009A607B68181CBD4602B080BD80B582B06C
:102B000000AF78607B68181C00F036F87B68181CF2
:102B1000BD4602B080BDC04680B584B000AFF8604D
:102B2000B9607A60BB68002B07D0F968BA687B6827
:102B3000081C111C1A1C00F029F8BD4604B080BD09
:102B400080B582B000AF786039607A683B68101C4D
:102B5000191C00F02DF8BD4602B080BD80B582B0D2
:102B600000AF78607B68181C00F02AF87B68181C9E
:102B7000BD4602B080BDC04680B582B000AF78606F
:102B80007B68181CBD4602B080BDC04680B584B0CD
:102B900000AFF860B9607A60F968BA687B68081CB1
:102BA000111C1A1C00F016F8BD4604B080BDC046CA
:102BB00080B582B000AF78603960BD4602B080BD9C
:102BC00080B582B000AF78607B68181CBD4602B04B
:102BD00080BDC04680B584B000AFF860B9607A604F
:102BE000BB68181C01F0E4FABD4604B080BDC046C5
:102BF00080B582B000AF78607B68181C00F0B2FF2F
:102C00007B68064A1A607B680433181C00F066F97A
:102C10007B68181CBD4602B080BDC0460848001045
:102C200080B582B000AF78607B680B4A1A607B6821
:102C30000433181C00F060F97B68181C00F0A0FF3A
:102C40000023002B03D07B68181C01F0B1FA7B68CD
:102C5000181CBD4602B080BD0848001080B582B087
:102C600000AF78607B68181CFFF7DAFF7B68181CE0
:102C700001F09EFA7B68181CBD4602B080BDC046BC
:102C800080B582B000AF786039607B681A1D3B1C4C
:102C9000101C191C00F04CF9BD4602B080BDC046A6
:102CA00080B584B000AF78600023FB600EE07B68E5
:102CB0001A1DFB68101C191C00F062F9031C1B682C
:102CC000181C00F059FEFB680133FB607B6804337D
:102CD000181C00F063F9021CFB6893429B415B42A5
:102CE000DBB2002BE3D1BD4604B080BD80B588B017
:102CF00000AFF860B9607A603B600023FB616DE073
:102D0000FB681A1DFB69101C191C00F039F9031C23
:102D10001B68BB61BB69181C00F02EFEBB69181C48
:102D200000F04AFE1423FB1800221A701423FB182B
:102D300000225A707B68022B22D1BA68FB69101CF2
:102D4000191CFFF733FE031C1A1C0F231A403B68A3
:102D50001A41131CDAB21423FB181A70BA68FB6903
:102D6000101C191CFFF722FE031C1A1CF0231A402A
:102D70003B681A41131CDAB21423FB185A7011E095
:102D8000BA68FB69101C191CFFF710FE031C1A1C03
:102D90003B681A41131CD9B21423FA187B68D31864
:102DA0000A1C1A70BA691423FB18101C191C00F0B5
:102DB000EFFDBB69181C00F00FFEBB69181C00F08A
:102DC000CFFDFB680E4A181C111C00F001FFBB6907
:102DD000181C00F0D1FDFB690133FB61BB68181CB6
:102DE000FFF7A8FD031C5A1EFB69D017D90F9A42A2
:102DF0004841031CDBB2002B82D1BD4608B080BD28
:102E00000309000080B586B000AF78603960002308
:102E10007B610AE07A683B68101C191C00220023C1
:102E2000FFF764FF7B6901337B617B69092BF1DD6F
:102E30007B68181CFFF734FF7A68FA239B00101C8C
:102E4000191C00F0C5FE00233B610AE07A683B686C
:102E5000101C191C02220023FFF748FF3B690133B5
:102E60003B613B69092BF1DD7B68181CFFF718FFFC
:102E70007A68FA239B00101C191C00F0A9FE00239D
:102E8000FB600AE07A683B68101C191C01220023D1
:102E9000FFF72CFFFB680133FB60FB68092BF1DDBA
:102EA0007B68181CFFF7FCFE7A68FA239B00101C55
:102EB000191C00F08DFE0023BB600AE07A683B68B5
:102EC000101C191C02220023FFF710FFBB680133FE
:102ED000BB60BB68092BF1DD99E7C04680B582B0C5
:102EE00000AF78607B68181C00F076F87B68181CCF
:102EF000BD4602B080BDC046B0B582B000AF7860BC
:102F00007B681D687B685C687B68181C00F090F823
:102F1000031C281C211C1A1C00F094F87B68181C48
:102F200000F068F87B68181CBD4602B0B0BDC04612
:102F300080B582B000AF786039607B685A687B6882
:102F40009B689A420ED079687B685A683B68081C77
:102F5000111C1A1C00F086F87B685B681A1D7B68E0
:102F60005A600AE07B68181C00F058F9011C7A6866
:102F70003B68101C1A1C00F087F8BD4602B080BDEB
:102F800080B582B000AF786039607B681A683B68B2
:102F90009B00D318181CBD4602B080BD80B582B01E
:102FA00000AF78607B685B681A1C7B681B68D31A6B
:102FB0009B10181CBD4602B080BDC04680B582B0D3
:102FC00000AF78607B68181C00F050F97B68181C13
:102FD000BD4602B080BDC04680B582B000AF78600B
:102FE0007B68181C00F02CF97B68181CBD4602B0E9
:102FF00080BDC04690B583B000AF78607B681A682A
:103000007B689B68191C7B681B68CB1A9B101C1C77
:103010007B68181C111C221C00F036F97B68181CF8
:10302000FFF7CCFF7B68181CBD4603B090BDC046BF
:1030300080B582B000AF78607B68181CBD4602B0D6
:1030400080BDC04680B584B000AFF860B9607A60DA
:10305000FA68BB68101C191C00F02AF9BD4604B0C0
:1030600080BDC04680B584B000AFF860B9607A60BA
:10307000F968BA687B68081C111C1A1C00F026F954
:10308000BD4604B080BDC046F0B58BB000AFF8605F
:10309000B9607A60FB685A68FB689B689A422ED0D8
:1030A000F968FB685A68FB685B68043B081C111CE4
:1030B0001A1CFFF7D7FFFB685B681A1DFB685A6094
:1030C0007B681B687B620823FB18181C00F012F950
:1030D000031C1968FB685B68083B1A1CFB685B688B
:1030E000043B081C111C1A1C00F00EF90823FB18E5
:1030F000181C00F025F9031C7A6A1A6089E0FA6846
:10310000454B101C01211A1C00F024F9031C3B62E2
:10311000FB68181C00F06CF9031C3B610823FA18CB
:103120001023FB18101C191C00F072F9031CFB6122
:10313000FA683B6A101C191C00F082F9031CBB6181
:10314000BB697B61F968FB699B00BA69D2187B682F
:10315000081C111C1A1CFFF785FF00237B61FB680C
:103160001D680823FB18181C00F0C4F8031C1C6819
:10317000FB68181CFFF75CFF061CBB69281C211CA0
:103180001A1C331C00F072F9031C7B617B69043349
:103190007B610823FB18181C00F0ACF8031C1D68A9
:1031A000FB685C68FB68181CFFF742FF061C7B6924
:1031B000281C211C1A1C331C00F058F9031C7B61CD
:1031C000FB681D68FB685C68FB68181CFFF730FF34
:1031D000031C281C211C1A1CFFF734FFF968FB682C
:1031E0001A68FB689B68181CFB681B68C31A9B1055
:1031F000081C111C1A1C00F047F8FB68BA691A6019
:10320000FB687A695A603B6A9B00BA69D218FB680E
:103210009A60BD460BB0F0BDE847001080B584B0A1
:1032200000AF78607B6804330C22BA18101C191C9C
:1032300000F02EF9FB68181CBD4604B080BDC046E6
:1032400080B582B000AF78607B68181C00F02EF962
:103250007B6800221A607B6800225A607B6800222B
:103260009A607B68181CBD4602B080BD80B582B0F4
:1032700000AF78607B68181C00F026F97B68181C8A
:10328000BD4602B080BDC04680B584B000AFF860D6
:10329000B9607A60BB68002B07D0F968BA687B68B0
:1032A000081C111C1A1C00F019F9BD4604B080BDA1
:1032B00080B582B000AF786039607A683B68101CD6
:1032C000191C00F01DF9BD4602B080BD80B584B068
:1032D00000AFF860B9607A60BB680420191CFEF783
:1032E0007BF8031E02D07A6812681A60BD4604B0EB
:1032F00080BDC04680B582B000AF78607B68181C86
:10330000BD4602B080BDC04690B585B000AFF86044
:10331000B9607A60FB68181C00F0FAF8041CBB68FE
:10332000181C00F0F5F8021C7B68201C111C1A1CEC
:1033300000F0FCF8031C181CBD4605B090BDC0464B
:1033400080B582B000AF78607B681B68181CBD46F2
:1033500002B080BD90B587B000AFF860B9607A6008
:10336000FB68181C00F002F9041CFB68181CFFF72E
:1033700015FE031CE21ABB689A429B415B42DBB21A
:10338000002B03D07B68181C00F01FFFFB68181C83
:10339000FFF704FE041CFB68181CFFF7FFFD031C6D
:1033A0003B611023FA180823FB18101C191CFEF7A8
:1033B00031FC031C1B68E3187B61FB68181CFFF7DA
:1033C000EDFD021E7B699A4207D8FB68181C00F0CD
:1033D000CDF8021E7B699A4205D2FB68181C00F0EA
:1033E000C5F8031C00E07B69181CBD4607B090BD02
:1033F00080B584B000AF78607B680C22BA18101CCE
:10340000191C00F045F8FB68181CBD4604B080BDCF
:1034100090B583B000AF786039607B68181CFFF707
:1034200069FF031C1B681C1C3B68181CFFF762FF2C
:10343000031C1B68E31A9B10181CBD4603B090BD0B
:1034400080B582B000AF786039603B68002B07D050
:103450007A683B68101C191C00F09AF8031C00E005
:103460000023181CBD4602B080BDC04680B584B0A4
:1034700000AFF860B9607A603B60F868B9687A6854
:103480003B6800F097F8031C181CBD4604B080BDD3
:1034900080B582B000AF786039603B681A687B689D
:1034A0001A607B68181CBD4602B080BD80B582B032
:1034B00000AF78607B68181C00F090F87B68181CDF
:1034C000BD4602B080BDC04680B582B000AF786016
:1034D0007B68181CBD4602B080BDC04680B584B074
:1034E00000AFF860B9607A60F968BA687B68081C58
:1034F000111C1A1C00F07CF8BD4604B080BDC0460B
:1035000080B582B000AF78603960BD4602B080BD42
:1035100080B582B000AF78607B68181C00F076F848
:10352000031C181CBD4602B080BDC046B0B584B0B7
:1035300000AFF860B9607A60FB68181C00F070F8A2
:10354000051CBB68181C00F06BF8041C7B68181C79
:1035500000F066F8031C281C211C1A1C00F06EF8F1
:10356000031C181CBD4604B0B0BDC04680B582B077
:1035700000AF78607B68181C00F086F8031C181CEC
:1035800000F074F8031C181CBD4602B080BDC04694
:1035900080B582B000AF786039607A683B68101CF3
:1035A000191C002200F07AF8031C181CBD4602B05A
:1035B00080BDC04680B584B000AFF860B9607A6065
:1035C0003B60F968BA687B68081C111C1A1C00F083
:1035D00083F8031C181CBD4604B080BD80B582B0C2
:1035E00000AF78607B68181CBD4602B080BDC04645
:1035F00080B584B000AFF860B9607A60BB68181C11
:1036000000F0D6FDBD4604B080BDC04680B582B096
:1036100000AF78607B68181CBD4602B080BDC04614
:1036200080B582B000AF78607B68181CFFF7EEFFB2
:10363000031C181CBD4602B080BDC04680B586B0D4
:1036400000AFF860B9607A601723FB1801221A7086
:10365000F968BA687B68081C111C1A1C00F054F841
:10366000031C181CBD4606B080BDC04680B582B0A4
:1036700000AF78607B68181C00F06AF8031C181C07
:10368000BD4602B080BDC04680B582B000AF786054
:103690007B68181CBD4602B080BDC04680B584B0B2
:1036A00000AFF860B9607A60FB68181C00F050F851
:1036B000021CBB689A429B415B42DBB2002B01D0EB
:1036C00000F080FDBB689B00181C00F05FFD031C30
:1036D000181CBD4604B080BD80B586B000AFF86050
:1036E000B9607A601723FB1801221A70F968BA686A
:1036F0007B68081C111C1A1C00F036F8031C181CEF
:10370000BD4606B080BDC04680B586B000AFF8604B
:10371000B9607A60BA68FB68D31A9B107B617B69D9
:10372000002B0CD07B699B005B427A68D1187B69C7
:103730009B00FA68081C111C1A1C00F0E7FE7B694C
:103740009B005B427A68D318181CBD4606B080BD4A
:1037500080B582B000AF7860024B181CBD4602B045
:1037600080BDC046FFFFFF3F80B584B000AFF8606A
:10377000B9607A60F968BA687B68081C111C1A1C69
:1037800000F006F8031C181CBD4604B080BDC046FE
:1037900090B585B000AFF860B9607A60FB68181C1E
:1037A000FFF7B6FE041CBB68181CFFF7B1FE021C35
:1037B0007B68201C111C1A1C00F006F8031C181C46
:1037C000BD4605B090BDC046B0B584B000AFF8604E
:1037D000B9607A60FB68181CFFF722FF051CBB6804
:1037E000181CFFF71DFF041C7B68181CFFF718FF4F
:1037F000031C281C211C1A1C00F006F8031C181CB2
:10380000BD4604B0B0BDC04680B586B000AFF8601C
:10381000B9607A601723FB1801221A70F968BA6838
:103820007B68081C111C1A1C00F006F8031C181CED
:10383000BD4606B080BDC04680B586B000AFF8601A
:10384000B9607A60BA68FB68D31A9B107B617B69A8
:10385000002B08D07B699B007968FA68081C111C52
:103860001A1C00F053FE7B699B007A68D318181C61
:10387000BD4606B080BDC04680B584B000AFF860DC
:10388000B9607A60F968BA687B68081C111C1A1C58
:10389000FDF704FCFB680C33181C00F063F9FB68AF
:1038A000044A1A60FB68044ADA60FB68181CBD46CB
:1038B00004B080BD184800102848001080B582B0C0
:1038C00000AF78607B680D4A1A607B680C4ADA604A
:1038D0007B680C33181C00F053F97B68181CFDF74B
:1038E000F3FB0023002B03D07B68181C00F060FC66
:1038F0007B68181CBD4602B080BDC0461848001049
:103900002848001008B4024B9C460C3808BC60479D
:10391000BD38001080B582B000AF78607B68181C9D
:10392000FFF7CCFF7B68181C00F042FC7B68181C7A
:10393000BD4602B080BDC04608B4024B9C460C3860
:1039400008BC60471539001080B582B000AF7860C0
:1039500039607B683A681A61BD4602B080BDC046D6
:1039600080B582B000AF78607B68181CFDF7D4FB8F
:10397000BD4602B080BDC04680B582B000AF786061
:103980007B68181CFDF7DCFBBD4602B080BDC0465D
:1039900080B582B000AF786039607B681B691B68B6
:1039A00018331A687B6819693B68081C191C904712
:1039B000BD4602B080BDC04680B582B000AF786021
:1039C0007B68181CFFF7D8FF7B681B69181CFDF784
:1039D000AFFDBD4602B080BD80B582B000AF78605B
:1039E0007B681B69181CFDF7AFFD7B68181CFFF78F
:1039F000B7FFBD4602B080BD80B500AF00F004F84F
:103A000000F01CF8BD4680BD80B500AF0A490A4BE6
:103A10001B899BB28022520113439BB20B81064942
:103A2000054A4823D35A9BB28022120113439AB20B
:103A30004823CA52BD4680BD0000054080B500AF96
:103A4000094BC0225A62094B094A1A60C046074B0B
:103A50001A688023DB051340F9D1034BC3225A6255
:103A600000F008F8BD4680BD0000014000030140A1
:103A70000001F13F80B500AF124B1A68FF231B0213
:103A800013401A0A104B1A600E4B1B68FF221A4093
:103A90000E4B1A600C4B1B68002B0ED00A4B1B6898
:103AA0001A020A4B1B68D3180948191C00F054FC71
:103AB000031C5A00074B1A6002E0064B064A1A60C4
:103AC000BD4680BD00030140900500209405002004
:103AD000000024F4FC3F00200048E80180B584B0D9
:103AE00000AF7860144B1B68002B02D1124B134AB5
:103AF0001A60114B1B68FB607B68033303229343FE
:103B00007B600D4B1A687B68D2180D4B9A4207D226
:103B1000094B1A687B68D218074B1A60FB6806E0ED
:103B200000F0B4FC031C0C221A6001235B42181C39
:103B3000BD4604B080BDC046980500201006002098
:103B4000FC3F002080B500AFBD4680BD80B582B08F
:103B500000AFFB1D00221A70FB1D1B78181CBD4610
:103B600002B080BD80B582B000AF78607B68034A48
:103B70001A607B68181CBD4602B080BD3848001032
:103B800080B582B000AF78607B68074A1A60002376
:103B9000002B03D07B68181C00F00AFB7B68181C04
:103BA000BD4602B080BDC0463848001080B582B026
:103BB00000AF78607B68181CFFF7E2FF7B68181C79
:103BC00000F0F6FA7B68181CBD4602B080BDC04606
:103BD00080B582B000AF786039603B685A1E3A60A9
:103BE0005A1E9341DBB2002BF7D1BD4602B080BD17
:103BF000B0B582B000AF021C3960FB1D1A70FB1D0E
:103C00001B787F2B2FD92D4CFB1D1B781A1C0F23E3
:103C10001340083B9908294AFB1D1B78181C0F23E9
:103C20000340083B9B0806339B00D3185B68FA1DD2
:103C30001278101C03220240D200101CFF22824086
:103C4000D2431A403B689B01FF200340F81D0078D7
:103C5000051C03202840C00083401A438B1D9B0095
:103C6000E3185A6026E0164CFB1D1B785BB29B08DC
:103C70001349FA1D127852B29208C032920052587B
:103C8000F91D0978081C03210140C900081CFF2107
:103C90008140C94311403A689201FF200240F81D5B
:103CA0000078051C03202840C00082400A43C0332E
:103CB0009B001A51BD4602B0B0BDC04600ED00E009
:103CC00000E100E080B582B000AF78607B68013B26
:103CD0000C4A934201D9012310E00B4B7A68013A58
:103CE0005A6001235B42181C0321FFF781FF064B3A
:103CF00000229A60044B07221A600023181CBD465C
:103D000002B080BDFFFFFF0010E000E080B500AF13
:103D1000034B034A126E80218A431A66BD4680BD5A
:103D20000002044080B500AF034B034A126E034902
:103D30000A401A66BD4680BD00020440FFFDFFFF39
:103D400080B500AF034B034A126E03490A401A665E
:103D5000BD4680BD00020440FFFBFFFF80B500AF01
:103D6000034B034A126E03490A401A66BD4680BDE2
:103D700000020440FFF7FFFF80B582B000AF78601B
:103D80007B685A1E7A605A1E9341DBB2002BF7D132
:103D9000BD4602B080BDC04680B500AF544BC022C6
:103DA0005A62544B544A1A60C046524B1A688023D8
:103DB000DB0513405A1E9341DBB2002BF5D14C4B6F
:103DC000C3225A62FFF756FE4C4B4C4A12698021BF
:103DD0000A431A61494B494A1269802109020A4380
:103DE0001A61474B464A9269802109040A439A6145
:103DF000434B434A9269802109060A439A61414B29
:103E0000404A5269802109040A435A613D4B3D4AA8
:103E10005269802109060A435A613A4B394A1269AC
:103E200080210A431A61374B364A526980210902C0
:103E30000A435A61334B334A9269802109020A438B
:103E40009A61304B2F4AD269802109040A43DA6112
:103E50002D4B1B68181C642100F07EFA031C181CF3
:103E6000FFF730FFFFF752FFFFF75CFFFFF768FF38
:103E7000FFF774FF234B234A126801218A431A601B
:103E8000204B204A126820218A431A601D4B1D4A8C
:103E900012681E490A401A601A4B1A4A12681C49D5
:103EA0000A401A60164B164A12681A490A401A60EC
:103EB000134B134A126818490A401A60114B114AF1
:103EC000126840218A431A600E4B0E4A1268802104
:103ED0008A431A60114B181CFFF74EFF094B094A21
:103EE00012688021C9010A431A60BD4680BDC046E0
:103EF00000000140000301400004F03F00010440C5
:103F00000002044000000440FC3F0020FFFDFFFFD2
:103F1000FFBFFFFFFFFBFFFFFFF7FFFF50C30000E6
:103F200090B5B5B000AFCF23FC18FFF70FFE031C10
:103F30002370CF23FB181B78002B00D0FEE7FFF780
:103F40002BFFC423FB18764A1A60C423FB180922EE
:103F50005A60BC23FB18724A1A60BC23FB1800226B
:103F60005A60B423FB186E4A1A60B423FB1805226A
:103F70005A60A823F918C423FA18BC23FB18081C9C
:103F8000111C1A1CFDF702F99C23F918C423FA1816
:103F9000B423FB18081C111C1A1CFDF7F7F8842326
:103FA000FA18C423FB18101C191CFDF71FFA8423F0
:103FB000FA18A823FB18101C191CFDF7A9FA842372
:103FC000FA189C23FB18101C191CFDF7A1FA70238A
:103FD000FB18544A181C111C0A22FFF74DFC7023D1
:103FE000FA188423FB18101C191CFFF7ADFC5C2386
:103FF000FB184C4A181C111C0B22FFF73DFC5C23DC
:10400000FA188423FB18101C191CFFF79DFC482389
:10401000FB18434A181C111C0622FFF72DFC4823ED
:10402000FA188423FB18101C191CFFF78DFC34238D
:10403000FB183B4A181C111C0722FFF71DFC3423F8
:10404000FA188423FB18101C191CFFF77DFC24238D
:10405000FB18181CFEF7CCFD2423FA187023FB185C
:10406000101C191CFEF70CFE2423FA185C23FB1805
:10407000101C191CFEF704FE2423FA184823FB1811
:10408000101C191CFEF7FCFD2423FA183423FB181E
:10409000101C191CFEF7F4FD3B1D181CFEF700FC5C
:1040A0003A1D214B101C191C0422FEF751FC24233D
:1040B000FA183B1D101C191CFEF7A4FE3B1D181C12
:1040C000FEF706FC2423FB18181CFEF7A9FD342379
:1040D000FB18181CFFF7F2FB4823FB18181CFFF70E
:1040E000EDFB5C23FB18181CFFF7E8FB7023FB18A3
:1040F000181CFFF7E3FB8423FB18181CFDF790F94D
:104100009C23FB18181CFDF757F8A823FB18181C54
:10411000FDF752F80023181CBD4635B090BDC046CF
:1041200000000440000204402005002080B500AFDC
:10413000144B1B685A1C134B1A60124B1B68322B12
:104140000BD1114B104A126801210A431A600E4B21
:104150000D4A126802218A431A600A4B1B68642BBD
:104160000EDD094B084A126801218A431A60064B8A
:10417000054A126802210A431A60024B00221A60A3
:10418000BD4680BD9C0500200001044010B5041E02
:1041900002D1013400E08047201C00F0A3F9002880
:1041A00005D100F009F80028F5D100F067F910BD3D
:1041B00008B500F0A1F908BD014B18687047C0466A
:1041C000A005002008B500F059F908B500F056F92F
:1041D0000123244A1168194200D11360224A116850
:1041E000194201D1012313600123204A11681942A9
:1041F00000D113601E4A1168194201D101231360D6
:1042000001231C4A1168194200D113601A4A11682F
:10421000194201D1012313600123184A1168194280
:1042200000D11360164A1168194201D101231360AD
:104230000123144A1168194200D11360124A11680F
:10424000194201D1012313600123104A1168194258
:1042500000D113600E4A1168194201D10123136085
:104260007047C046D0050020CC050020C8050020BE
:10427000C4050020C0050020BC050020B8050020B2
:10428000B4050020B0050020AC050020A8050020E2
:10429000A40500200123244A1168194200D11360AB
:1042A000224A1168194201D1012313600123204AD7
:1042B0001168194200D113601E4A1168194201D1D8
:1042C0000123136001231C4A1168194200D11360B5
:1042D0001A4A1168194201D1012313600123184AB7
:1042E0001168194200D11360164A1168194201D1B0
:1042F000012313600123144A1168194200D113608D
:10430000124A1168194201D1012313600123104A96
:104310001168194200D113600E4A1168194201D187
:10432000012313607047C04600060020FC050020F2
:10433000F8050020F4050020F0050020EC05002021
:10434000E8050020E4050020E0050020DC05002051
:10435000D8050020D4050020002243088B4274D3E6
:1043600003098B425FD3030A8B4244D3030B8B4276
:1043700028D3030C8B420DD3FF22090212BA030C7F
:104380008B4202D31212090265D0030B8B4219D360
:1043900000E0090AC30B8B4201D3CB03C01A524180
:1043A000830B8B4201D38B03C01A5241430B8B42C8
:1043B00001D34B03C01A5241030B8B4201D30B03B1
:1043C000C01A5241C30A8B4201D3CB02C01A5241D8
:1043D000830A8B4201D38B02C01A5241430A8B429B
:1043E00001D34B02C01A5241030A8B4201D30B0284
:1043F000C01A5241CDD2C3098B4201D3CB01C01A9E
:10440000524183098B4201D38B01C01A52414309A7
:104410008B4201D34B01C01A524103098B4201D395
:104420000B01C01A5241C3088B4201D3CB00C01A02
:10443000524183088B4201D38B00C01A524143087A
:104440008B4201D34B00C01A5241411A00D201469F
:10445000524110467047FFE701B5002000F00CF80C
:1044600002BDC0460029F7D003B5FFF775FF0EBCAB
:104470004243891A1847C0467047C04608B506200F
:1044800000F032F9012000F05FF90000014B1868DC
:104490007047C046840500200E4B70B500251E1CD9
:1044A0000D4CE41AA410A54204D0AB00F358984771
:1044B0000135F8E7FFF746FB084B00251E1C084CAA
:1044C000E41AA410A54204D0AB00F3589847013574
:1044D000F8E770BD880500208805002088050020C9
:1044E0009005002008B5034B011C186800F068F81F
:1044F00008BDC0468405002008B5034B011C1868A0
:1045000000F018F808BDC0468405002010B58142AF
:1045100008D28B18984205D29B1A013A09D3995CAC
:104520008154FAE70023934203D0CC5CC454013396
:10453000F9E710BD30B500293ED004390B68002BD7
:1045400000DAC9181D4A1368141C002B02D14B60F5
:10455000116031E099420DD208680A189A4203D1DD
:104560001368C3180B6053684B60216024E08A42D3
:1045700003D8131C5A68002AF9D11D685C198C42B3
:104580000BD10968691858181960904214D1106845
:104590005268091819605A600EE08C4202D90C2347
:1045A000036009E008680C18944203D1146852684B
:1045B000001908604A60596030BDC04608060020F6
:1045C000032370B5CC1C9C430834051C0C2C01D271
:1045D0000C2405E0002C03DA0C2300202B6042E0C1
:1045E0008C42F9D3204A1368101C191C002913D0DF
:1045F0000A68121B0DD40B2A02D90A608B181FE01F
:104600008B4202D15A6802601BE04A685A600B1C58
:1046100017E00B1C4968E9E7144E3368002B03D1FF
:10462000281C00F025F83060281C211C00F020F820
:10463000031C421CD0D00322C61C964386420AD1DA
:104640001C60181C07210B301A1D8843821A0AD0DF
:104650005142995007E0311A281C00F009F8431C18
:10466000BAD0331CECE770BD080600200406002019
:1046700038B50023064C051C081C2360FFF72EFAF2
:10468000431C03D12368002B00D02B6038BDC046EB
:104690000C06002038B51F2904D916230360012019
:1046A000404220E0426C0D1C041C002A04D08B0008
:1046B000D2181368002B08D1201C00F031F82A1CF6
:1046C000011C201C00F01AF80DE00020012B0AD07C
:1046D000591C03D117332360013004E00024281C47
:1046E00014609847201C38BD08B5034B011C18689E
:1046F000FFF7D0FF08BDC0468405002038B5002371
:10470000064C051C081C111C236000F015F8431C06
:1047100003D12368002B00D02B6038BD0C0600208D
:1047200008B500F001F808BD58220120014B4042B5
:104730001A6070470C06002058220120014B4042AD
:104740001A6070470C060020FEE7C046000000001B
:104750000000000000000000C9100010F51000105B
:104760000000000000000000B9110010E511001069
:104770000912001055120010B1120010FD120010A5
:10478000766563746F723A3A5F4D5F696E736572F6
:10479000745F6175780000000000000000000000F8
:1047A000211400105D1400100912001055120010A1
:1047B000B1120010FD120010811400100000000062
:1047C000766563746F723A3A5F4D5F696E736572B6
:1047D000745F6175780000000000000000000000B8
:1047E000D128001011290010766563746F723A3A6F
:1047F0005F4D5F696E736572745F6175780000006C
:104800000000000000000000212C00105D2C0010B2
:104810000000000000000000BD3800101539001035
:10482000F4FFFFFF000000000539001039390010C7
:104830000000000000000000813B0010AD3B0010B4
:104840004300000000000000000000000000000025
:104850000000000000000000000000000000000058
:104860000000000000000000000000000000000048
:104870000000000000000000000000000000000038
:104880000000000000000000000000000000000028
:104890000000000000000000000000000000000018
:0448A0000000000014
:1048A4002C488746000000000000000000000000C3
:1048B40000000000000000000000000000000000F4
:1048C4002548874600000000000000002348874672
:1048D40023488746234887462348874623488746F4
:1048E40023488746234887462348874623488746E4
:1048F4000000000000000000214887462148874648
:1049040021488746214887462148874621488746CB
:104914002148874621488746000000000000000027
:1049240000000000000000001D4887461D4887461F
:104934001D4887461D48874600000000000000000F
:104944000000000000000000000000000000000063
:104954000000000099100010991000109910001028
:104964002D4100109910001099100010991000109A
:10497400991000109910001099100010991000104F
:10498400991000109910001099100010991000103F
:10499400991000109910001099100010991000102F
:1049A400991000109910001099100010991000101F
:1049B400CCCC33330000000044480010644800109D
:1049C4008448001000000000000000000000000007
:1049D400000000004048001000000000000000003B
:1049E40000000000000000000000000000000000C3
:1049F40000000000000000000000000000000000B3
:104A040000000000000000000000000000000000A2
:104A14000000000024050020D14100109542001040
:0400000510001019BE
:00000001FF
