:020000041000EA
:1010000020050020191000100000000099100010A9
:1010100000040100000000801149124A124B00F048
:1010200018F8124880471249124A134B00F011F881
:101030001249134A134B00F00CF81349134A0020CD
:10104000521A02DD043A8850FCDC114880471148EE
:1010500080479B1A03DD043BC858D050FBDC704727
:101060003C3300100C0000201C010020C1200010A7
:101070004C3400102005002090050020BC340010E6
:1010800090050020900500209005002028060020F3
:10109000992D0010E9250010FEE7000080B584B00E
:1010A00000AFF860B9607A60FB68064A1A60FB68B6
:1010B000BA685A60FB687A689A60FB68181CBD467B
:1010C00004B080BD7830001080B582B000AF786089
:1010D0007B68074A1A600023002B03D07B68181C2A
:1010E00001F032FC7B68181CBD4602B080BDC046D2
:1010F0007830001080B582B000AF78607B68181C33
:10110000FFF7E2FF7B68181C01F01EFC7B68181CCF
:10111000BD4602B080BDC04680B582B000AF7860E9
:101120007B685B687A68526811687A689268101CFC
:10113000012282400A431A60BD4602B080BDC0460B
:1011400080B582B000AF78607B685B687A6852686F
:1011500011687A689268101C01228240D2430A40CA
:101160001A60BD4602B080BD80B582B000AF786025
:1011700039607B68044A1A607B683A685A607B6809
:10118000181CBD4602B080BD8830001080B584B008
:1011900000AFF860B9607A60FB68064A1A60FB68C5
:1011A000BA685A60FB687A689A60FB68181CBD468A
:1011B00004B080BD8830001080B582B000AF786088
:1011C0007B68074A1A600023002B03D07B68181C39
:1011D00001F0BAFB7B68181CBD4602B080BDC0465A
:1011E0008830001080B582B000AF78607B68181C32
:1011F000FFF7E2FF7B68181C01F0A6FB7B68181C58
:10120000BD4602B080BDC04680B584B000AF7860F6
:101210000A1CFB1C1A700023FB6014E07B681B682F
:101220000C331B68FA1C1178FA6811410A1C012161
:101230000A4051424A41D2B27968081C111C9847B1
:10124000FB680133FB60FB68072BE7DDBD4604B09C
:1012500080BDC04680B582B000AF78600A1CFB1C20
:101260001A70FB1C1B78002B0FD07B689B681B68D7
:101270007A689268126811687A6892685268101CDD
:10128000012282400A431A600FE07B689B681B685A
:101290007A689268126811687A6892685268101CBD
:1012A00001228240D2430A401A60BD4602B080BD8E
:1012B00080B584B000AF78600A1CFB1C1A70002354
:1012C000FB6014E07B681B6814331B68FA1C117800
:1012D000FA6811410A1C01210A4051424A41D2B226
:1012E0007968081C111C9847FB680133FB60FB6898
:1012F000072BE7DDBD4604B080BDC04680B582B097
:1013000000AF78600A1CFB1C1A707B68181C00F088
:101310003FF87B681B680C331B687968FA1C1278ED
:10132000081C111C98477B68181C00F003F8BD4688
:1013300002B080BD80B582B000AF7860134B134A15
:10134000126801210A431A607B68181C002100F012
:1013500041F80E4B0D4A126801218A431A607B68DE
:101360005B681B687A685268126811687A6852680C
:101370005268101C012282400A431A607B68181CC4
:10138000002100F027F8BD4602B080BD00010440F6
:1013900080B582B000AF78607B68181C002100F037
:1013A00019F87B685B681B687A6852681268116874
:1013B0007A6852685268101C01228240D2430A4067
:1013C0001A607B68181C002100F004F8BD4602B0CA
:1013D00080BDC04680B582B000AF786039603B68A0
:1013E0005A1E3A605A1E9341DBB2002BF7D1BD461C
:1013F00002B080BD80B582B000AF786039603B68D4
:10140000181CBD4602B080BD80B582B000AF7860C8
:1014100039607A683B68101C191CFFF7A5FE7B68D1
:10142000054A1A607B680C33181C00F0A7F87B682B
:10143000181CBD4602B080BDC030001080B582B01F
:1014400000AF78607B680B4A1A607B680C33181C0D
:1014500000F0A2F87B68181CFFF7AEFE0023002BFB
:1014600003D07B68181C01F06FFA7B68181CBD461E
:1014700002B080BDC030001080B582B000AF78608F
:101480007B68181CFFF7DAFF7B68181C01F05CFA18
:101490007B68181CBD4602B080BDC04680B584B0D4
:1014A00000AF78600A1CFB1C1A700023FB6036E05A
:1014B0007B68181CFFF76CFF0023BB601BE07B6898
:1014C0000C331A1CBB68101C191C00F091F8031C8B
:1014D0001B681A680C321268F91C0878F968084110
:1014E000011C0120014048424141C9B2181C9047EB
:1014F000BB680133BB607B680C33181C00F068F8D4
:10150000021CBB6893429B415B42DBB2002BD6D1ED
:101510007B68181CFFF70EFFFB680133FB60FB685C
:10152000072BC5DDBD4604B080BDC04680B582B086
:1015300000AF786039607B680C331A1C3B1C101CB0
:10154000191C00F063F8BD4602B080BD80B582B0C2
:1015500000AF78607B68181CFFF71AFFBD4602B029
:1015600080BDC04680B582B000AF78607B68181C33
:10157000FFF7E0FEBD4602B080BDC04680B582B038
:1015800000AF78607B68181C00F076F87B68181C48
:10159000BD4602B080BDC046B0B582B000AF786035
:1015A0007B681D687B685C687B68181C00F090F89D
:1015B000031C281C211C1A1C00F094F87B68181CC2
:1015C00000F068F87B68181CBD4602B0B0BDC0468C
:1015D00080B582B000AF78607B685B681A1C7B685E
:1015E0001B68D31A9B10181CBD4602B080BDC046B4
:1015F00080B582B000AF786039607B681A683B685C
:101600009B00D318181CBD4602B080BD80B582B0C7
:1016100000AF786039607B685A687B689B689A4243
:101620000ED079687B685A683B68081C111C1A1C2C
:1016300000F068F87B685B681A1D7B685A600AE0F6
:101640007B68181C00F03AF9011C7A683B68101C92
:101650001A1C00F069F8BD4602B080BD80B582B0AA
:1016600000AF78607B68181C00F050F97B68181C8C
:10167000BD4602B080BDC04680B582B000AF786084
:101680007B68181C00F02CF97B68181CBD4602B062
:1016900080BDC04690B583B000AF78607B681A68A3
:1016A0007B689B68191C7B681B68CB1A9B101C1CF1
:1016B0007B68181C111C221C00F036F97B68181C72
:1016C000FFF7CCFF7B68181CBD4603B090BDC04639
:1016D00080B582B000AF78607B68181CBD4602B050
:1016E00080BDC04680B584B000AFF860B9607A6054
:1016F000FA68BB68101C191C00F02AF9BD4604B03A
:1017000080BDC04680B584B000AFF860B9607A6033
:10171000F968BA687B68081C111C1A1C00F026F9CD
:10172000BD4604B080BDC046F0B58BB000AFF860D8
:10173000B9607A60FB685A68FB689B689A422ED051
:10174000F968FB685A68FB685B68043B081C111C5D
:101750001A1CFFF7D7FFFB685B681A1DFB685A600D
:101760007B681B687B620823FB18181C00F012F9C9
:10177000031C1968FB685B68083B1A1CFB685B6804
:10178000043B081C111C1A1C00F00EF90823FB185E
:10179000181C00F025F9031C7A6A1A6089E0FA68BF
:1017A000454B101C01211A1C00F024F9031C3B625C
:1017B000FB68181C00F06CF9031C3B610823FA1845
:1017C0001023FB18101C191C00F072F9031CFB619C
:1017D000FA683B6A101C191C00F082F9031CBB61FB
:1017E000BB697B61F968FB699B00BA69D2187B68A9
:1017F000081C111C1A1CFFF785FF00237B61FB6886
:101800001D680823FB18181C00F0C4F8031C1C6892
:10181000FB68181CFFF75CFF061CBB69281C211C19
:101820001A1C331C00F072F9031C7B617B690433C2
:101830007B610823FB18181C00F0ACF8031C1D6822
:10184000FB685C68FB68181CFFF742FF061C7B699D
:10185000281C211C1A1C331C00F058F9031C7B6146
:10186000FB681D68FB685C68FB68181CFFF730FFAD
:10187000031C281C211C1A1CFFF734FFF968FB68A5
:101880001A68FB689B68181CFB681B68C31A9B10CE
:10189000081C111C1A1C00F047F8FB68BA691A6092
:1018A000FB687A695A603B6A9B00BA69D218FB6888
:1018B0009A60BD460BB0F0BDA030001080B584B07A
:1018C00000AF78607B6804330C22BA18101C191C16
:1018D00000F02EF9FB68181CBD4604B080BDC04660
:1018E00080B582B000AF78607B68181C00F02EF9DC
:1018F0007B6800221A607B6800225A607B680022A5
:101900009A607B68181CBD4602B080BD80B582B06D
:1019100000AF78607B68181C00F026F97B68181C03
:10192000BD4602B080BDC04680B584B000AFF8604F
:10193000B9607A60BB68002B07D0F968BA687B6829
:10194000081C111C1A1C00F019F9BD4604B080BD1A
:1019500080B582B000AF786039607A683B68101C4F
:10196000191C00F01DF9BD4602B080BD80B584B0E1
:1019700000AFF860B9607A60BB680420191CFFF7FB
:1019800039FD031E02D07A6812681A60BD4604B0A1
:1019900080BDC04680B582B000AF78607B68181CFF
:1019A000BD4602B080BDC04690B585B000AFF860BE
:1019B000B9607A60FB68181C00F0FAF8041CBB6878
:1019C000181C00F0F5F8021C7B68201C111C1A1C66
:1019D00000F0FCF8031C181CBD4605B090BDC046C5
:1019E00080B582B000AF78607B681B68181CBD466C
:1019F00002B080BD90B587B000AFF860B9607A6082
:101A0000FB68181C00F002F9041CFB68181CFFF7A7
:101A1000DFFD031CE21ABB689A429B415B42DBB2CA
:101A2000002B03D07B68181C00F0A7FFFB68181C74
:101A3000FFF7CEFD041CFB68181CFFF7C9FD031C53
:101A40003B611023FA180823FB18101C191C00F026
:101A5000EFF8031C1B68E3187B61FB68181CFFF799
:101A6000B7FD021E7B699A4207D8FB68181C00F07C
:101A7000CDF8021E7B699A4205D2FB68181C00F063
:101A8000C5F8031C00E07B69181CBD4607B090BD7B
:101A900080B584B000AF78607B680C22BA18101C47
:101AA000191C00F045F8FB68181CBD4604B080BD49
:101AB00090B583B000AF786039607B68181CFFF781
:101AC00069FF031C1B681C1C3B68181CFFF762FFA6
:101AD000031C1B68E31A9B10181CBD4603B090BD85
:101AE00080B582B000AF786039603B68002B07D0CA
:101AF0007A683B68101C191C00F0ACF8031C00E06D
:101B00000023181CBD4602B080BDC04680B584B01D
:101B100000AFF860B9607A603B60F868B9687A68CD
:101B20003B6800F0A9F8031C181CBD4604B080BD3A
:101B300080B582B000AF786039603B681A687B6816
:101B40001A607B68181CBD4602B080BD80B582B0AB
:101B500000AF78607B68181C00F0A2F87B68181C46
:101B6000BD4602B080BDC04680B582B000AF78608F
:101B70007B68181CBD4602B080BDC04680B584B0ED
:101B800000AFF860B9607A60F968BA687B68081CD1
:101B9000111C1A1C00F08EF8BD4604B080BDC04672
:101BA00080B582B000AF78603960BD4602B080BDBC
:101BB00080B582B000AF78607B68181C00F088F8B0
:101BC000031C181CBD4602B080BDC046B0B584B031
:101BD00000AFF860B9607A60FB68181C00F082F80A
:101BE000051CBB68181C00F07DF8041C7B68181CE1
:101BF00000F078F8031C281C211C1A1C00F080F847
:101C0000031C181CBD4604B0B0BDC04680B582B0F0
:101C100000AF78607B68181C00F098F8031C181C53
:101C200000F086F8031C181CBD4602B080BDC046FB
:101C300080B582B000AF786039607B681A683B6815
:101C40001B689A4201D23B6800E07B68181CBD46C5
:101C500002B080BD80B582B000AF786039607A682C
:101C60003B68101C191C002200F07AF8031C181C99
:101C7000BD4602B080BDC04680B584B000AFF860FC
:101C8000B9607A603B60F968BA687B68081C111C0F
:101C90001A1C00F083F8031C181CBD4604B080BD5C
:101CA00080B582B000AF78607B68181CBD4602B07A
:101CB00080BDC04680B584B000AFF860B9607A607E
:101CC000BB68181C00F040FEBD4604B080BDC04695
:101CD00080B582B000AF78607B68181CBD4602B04A
:101CE00080BDC04680B582B000AF78607B68181CAC
:101CF000FFF7EEFF031C181CBD4602B080BDC046B6
:101D000080B586B000AFF860B9607A601723FB1821
:101D100001221A70F968BA687B68081C111C1A1C29
:101D200000F054F8031C181CBD4606B080BDC04628
:101D300080B582B000AF78607B68181C00F06AF84C
:101D4000031C181CBD4602B080BDC04680B582B0E1
:101D500000AF78607B68181CBD4602B080BDC046ED
:101D600080B584B000AFF860B9607A60FB68181C79
:101D700000F050F8021CBB689A429B415B42DBB208
:101D8000002B01D000F0F3FDBB689B00181C00F095
:101D9000C9FD031C181CBD4604B080BD80B586B0CB
:101DA00000AFF860B9607A601723FB1801221A703F
:101DB000F968BA687B68081C111C1A1C00F036F818
:101DC000031C181CBD4606B080BDC04680B586B059
:101DD00000AFF860B9607A60BA68FB68D31A9B10EC
:101DE0007B617B69002B0CD07B699B005B427A682E
:101DF000D1187B699B00FA68081C111C1A1C01F0A1
:101E00000EF87B699B005B427A68D318181CBD46AC
:101E100006B080BD80B582B000AF7860024B181C60
:101E2000BD4602B080BDC046FFFFFF3F80B584B015
:101E300000AFF860B9607A60F968BA687B68081C1E
:101E4000111C1A1C00F006F8031C181CBD4604B037
:101E500080BDC04690B585B000AFF860B9607A60CB
:101E6000FB68181CFFF7A4FE041CBB68181CFFF7D6
:101E70009FFE021C7B68201C111C1A1C00F006F837
:101E8000031C181CBD4605B090BDC046B0B584B05B
:101E900000AFF860B9607A60FB68181CFFF722FF9A
:101EA000051CBB68181CFFF71DFF041C7B68181C71
:101EB000FFF718FF031C281C211C1A1C00F006F851
:101EC000031C181CBD4604B0B0BDC04680B586B02A
:101ED00000AFF860B9607A601723FB1801221A700E
:101EE000F968BA687B68081C111C1A1C00F006F817
:101EF000031C181CBD4606B080BDC04680B586B028
:101F000000AFF860B9607A60BA68FB68D31A9B10BA
:101F10007B617B69002B08D07B699B007968FA683C
:101F2000081C111C1A1C00F07AFF7B699B007A6860
:101F3000D318181CBD4606B080BDC04680B584B01D
:101F400000AFF860B9607A60F968BA687B68081C0D
:101F5000111C1A1CFFF7A2F8FB680C33181C00F0C8
:101F600065F9FB68044A1A60FB68044ADA60FB689A
:101F7000181CBD4604B080BDE0300010F0300010E9
:101F800080B582B000AF78607B680D4A1A607B68CC
:101F90000C4ADA607B680C33181C00F055F97B683A
:101FA000181CFFF791F80023002B03D07B68181C46
:101FB00000F0CAFC7B68181CBD4602B080BDC0465C
:101FC000E0300010F030001008B4024B9C460C3892
:101FD00008BC6047811F001080B582B000AF7860F8
:101FE0007B68181CFFF7CCFF7B68181C00F0ACFC6A
:101FF0007B68181CBD4602B080BDC04608B4024BC9
:102000009C460C3808BC6047D91F001080B582B0D0
:1020100000AF786039607B683A681A61BD4602B0EB
:1020200080BDC04680B582B000AF78607B68181C68
:10203000FFF772F8BD4602B080BDC04680B582B0E1
:1020400000AF78607B68181CFFF77AF8BD4602B0D5
:1020500080BDC04680B582B000AF78600A1CFB1C12
:102060001A707B681B691B6808331A687B681969DA
:10207000FB1C1B78081C191C9047BD4602B080BD94
:1020800080B582B000AF78607B68181CFFF7D6FF80
:102090007B681B69181CFFF759FABD4602B080BD6A
:1020A00080B582B000AF78607B681B69181CFFF7B1
:1020B00059FA7B68181CFFF7B5FFBD4602B080BD1A
:1020C00080B500AF00F004F800F01CF8BD4680BDFC
:1020D00080B500AF0A490A4B1B899BB2802252018E
:1020E00013439BB20B810649054A4823D35A9BB23E
:1020F0008022120113439AB24823CA52BD4680BDC2
:102100000000054080B500AF094BC0225A62094B60
:10211000094A1A60C046074B1A688023DB05134042
:10212000F9D1034BC3225A6200F008F8BD4680BDC6
:1021300000000140000301400001F13F80B500AF05
:10214000124B1A68FF231B0213401A0A104B1A6025
:102150000E4B1B68FF221A400E4B1A600C4B1B687B
:10216000002B0ED00A4B1B681A020A4B1B68D318AF
:102170000948191C00F062FD031C5A00074B1A6045
:1021800002E0064B064A1A60BD4680BD00030140CE
:102190009005002094050020000024F4FC3F00205E
:1021A0000048E80180B584B000AF7860144B1B682C
:1021B000002B02D1124B134A1A60114B1B68FB60B3
:1021C0007B680333032293437B600D4B1A687B6863
:1021D000D2180D4B9A4207D2094B1A687B68D21865
:1021E000074B1A60FB6806E000F0D0FD031C0C22D0
:1021F0001A6001235B42181CBD4604B080BDC04676
:102200009C05002028060020FC3F002080B500AF80
:10221000BD4680BD80B582B000AFFB1D00221A70A4
:10222000FB1D1B78181CBD4602B080BD80B582B076
:1022300000AF78607B68034A1A607B68181CBD4653
:1022400002B080BD0031001080B582B000AF786070
:102250007B68074A1A600023002B03D07B68181C98
:1022600000F072FB7B68181CBD4602B080BDC04602
:102270000031001080B582B000AF78607B68181C18
:10228000FFF7E2FF7B68181C00F05EFB7B68181C00
:10229000BD4602B080BDC04680B582B000AF786058
:1022A00039603B685A1E3A605A1E9341DBB2002BDC
:1022B000F7D1BD4602B080BDB0B582B000AF021C00
:1022C0003960FB1D1A70FB1D1B787F2B2FD92D4CFD
:1022D000FB1D1B781A1C0F231340083B9908294A41
:1022E000FB1D1B78181C0F230340083B9B0806337B
:1022F0009B00D3185B68FA1D1278101C0322024061
:10230000D200101CFF228240D2431A403B689B013E
:10231000FF200340F81D0078051C03202840C00062
:1023200083401A438B1D9B00E3185A6026E0164C2D
:10233000FB1D1B785BB29B081349FA1D127852B241
:102340009208C03292005258F91D0978081C0321E6
:102350000140C900081CFF218140C94311403A686F
:102360009201FF200240F81D0078051C0320284040
:10237000C00082400A43C0339B001A51BD4602B0E0
:10238000B0BDC04600ED00E000E100E080B582B0E5
:1023900000AF78607B68013B0C4A934201D901236E
:1023A00010E00B4B7A68013A5A6001235B42181C1B
:1023B0000321FFF781FF064B00229A60044B07229E
:1023C0001A600023181CBD4602B080BDFFFFFF004D
:1023D00010E000E080B500AF034B034A126E80218D
:1023E0008A431A66BD4680BD0002044080B500AF36
:1023F000034B034A126E03490A401A66BD4680BD6C
:1024000000020440FFFDFFFF80B500AF034B034A0D
:10241000126E03490A401A66BD4680BD00020440A0
:10242000FFFBFFFF80B500AF034B034A126E034969
:102430000A401A66BD4680BD00020440FFF7FFFF58
:1024400080B582B000AF78607B685A1E7A605A1EF1
:102450009341DBB2002BF7D1BD4602B080BDC04630
:1024600080B500AF544BC0225A62544B544A1A6094
:10247000C046524B1A688023DB0513405A1E934115
:10248000DBB2002BF5D14C4BC3225A62FFF756FE4C
:102490004C4B4C4A126980210A431A61494B494A04
:1024A0001269802109020A431A61474B464A926920
:1024B000802109040A439A61434B434A926980216F
:1024C00009060A439A61414B404A52698021090436
:1024D0000A435A613D4B3D4A5269802109060A432D
:1024E0005A613A4B394A126980210A431A61374BC3
:1024F000364A5269802109020A435A61334B334AF2
:102500009269802109020A439A61304B2F4AD269AD
:10251000802109040A43DA612D4B1B68181C6421D1
:1025200000F08CFB031C181CFFF730FFFFF752FF75
:10253000FFF75CFFFFF768FFFFF774FF234B234AA9
:10254000126801218A431A60204B204A1268202118
:102550008A431A601D4B1D4A12681E490A401A60C0
:102560001A4B1A4A12681C490A401A60164B164A3E
:1025700012681A490A401A60134B134A1268184924
:102580000A401A60114B114A126840218A431A60AE
:102590000E4B0E4A126880218A431A60114B181C98
:1025A000FFF74EFF094B094A12688021C9010A430F
:1025B0001A60BD4680BDC0460000014000030140D6
:1025C0000004F03F00010440000204400000044009
:1025D000FC3F0020FFFDFFFFFFBFFFFFFFFBFFFFF2
:1025E000FFF7FFFF50C3000090B5ABB000AF9F23D3
:1025F000FC18FFF70FFE031C23709F23FB181B78AA
:10260000002B00D0FEE7FFF72BFF9423FB18904A26
:102610001A609423FB1809225A608C23FB188C4AF9
:102620001A608C23FB1800225A608423FB18884A06
:102630001A608423FB1805225A607823F918942322
:10264000FA188C23FB18081C111C1A1CFEF79EFD9F
:102650006C23F9189423FA188423FB18081C111C06
:102660001A1CFEF793FD5423FA189423FB18101C30
:10267000191CFEF7C9FE5423FA187823FB18101C06
:10268000191CFEF753FF5423FA186C23FB18101C77
:10269000191CFEF74BFF4023FB186E4A181C111C37
:1026A0000A22FFF74BFC4023FA185423FB18101C96
:1026B000191CFFF7ABFC2C23FB18664A181C111CD5
:1026C0000B22FFF73BFC2C23FA185423FB18101C99
:1026D000191CFFF79BFC1823FB185D4A181C111CE2
:1026E0000622FFF72BFC1823FA185423FB18101CA2
:1026F000191CFFF78BFC3B1D554A181C111C0722A7
:10270000FFF71CFC3A1D5423FB18101C191CFFF783
:102710007DFC4023FB18181CFFF7B2FC4023FB187C
:10272000181CA521FFF796FC4023FB18181CFFF787
:10273000B7FC0023A422BA181360A423FB181B685B
:10274000002B05D14023FB18A022BA18136023E008
:10275000A423FB181B68022B05D12C23FB18A022F5
:10276000BA18136018E0A423FB181B68042B05D1CA
:102770001823FB18A022BA1813600DE0A423FB183D
:102780001B68062B08D13B1DA022BA181360012339
:102790005B42A422BA181360A023FB181B680C33F9
:1027A0002D4A181C111CFFF777FDA023FB181B688E
:1027B000181CFFF743FCA423FB181B68DBB25B3B30
:1027C000DBB2A022BA181268101C191CFFF742FCD9
:1027D000A023FB181B68181CFFF724FCA023FB1880
:1027E0001B680C331C4A181C111CFFF755FDA02355
:1027F000FB181B68181CFFF721FCA423FB181B689F
:10280000DBB25A33DBB2A022BA181268101C191CB2
:10281000FFF720FCA023FB181B68181CFFF702FC25
:10282000A023FB181B680C330B4A181C111CFFF764
:1028300033FDA023FB181B68181CFFF7FFFBA42324
:10284000FB181B680133A422BA18136075E7C04651
:102850000000044000020440F824010080B500AFED
:102860000E4B1B685A1C0D4B1A600C4B1B68322B0D
:1028700005D10B4B0A4A126802218A431A60074BA2
:102880001B68642B08DD064B054A126802210A43C7
:102890001A60024B00221A60BD4680BDA4050020CC
:1028A0000001044080B584B000AF786039607B6877
:1028B000012B1ED13B68104A93421AD10C23FB18FE
:1028C000181C00F052F80D490D4A0C23FB18081C87
:1028D000111C1A1C00F0D8F80C23FB18181C00F06F
:1028E00045F80649074A084B081C111C1A1C00F041
:1028F00035F8BD4604B080BDFFFF0000A0050020F4
:1029000008310010292A00109805002080B500AF7A
:10291000034B0120191CFFF7C5FFBD4680BDC04613
:10292000FFFF000010B5041E02D1013400E0804713
:10293000201C00F057FA002805D100F009F8002803
:10294000F5D100F00DFA10BD08B500F055FA08BD3C
:10295000014B18687047C046A805002008B5031C45
:10296000081C191C00F004FA08BD7047704708B530
:1029700000F0F6F908B500F0F3F908B500F0F0F949
:1029800008B5012A02D10B78037001E000F03EFA8D
:1029900008BD08B5521AFFF7F3FF08BD044B984273
:1029A00004D000230160411883600B737047C04658
:1029B000AC050020134A38B5041E944202D91248CF
:1029C000FFF7DBFF884203D94B00984200D21C1C62
:1029D000231C201C80251D330D306D01AB420AD90C
:1029E0008C4208D91B0564191B0DE41A944200D9C6
:1029F000044C201C0D30FFF795FF002344608360DA
:102A000038BDC046FCFFFF3FCC31001008B5054B78
:102A1000984206D083685A1E8260002B01DCFFF7C3
:102A200093FF08BDAC05002013B5041C006801A984
:102A30000C38FFF7EBFF201C16BD0000F7B58842ED
:102A400001D10F4E19E00C1C051E04D1002C02D040
:102A50000C48FFF78FFF631B181C00210193FFF741
:102A6000A9FF061C071C0C36301C291C221CFFF772
:102A700090FF381C0199FFF791FF301CFEBDC04646
:102A8000B80500207F32001070B5051C0C1C161C08
:102A9000002904D0081C00F0D1FA211801E001211E
:102AA0004942321C201C0023FFF7C8FF2860281C65
:102AB00070BD00000123244A1168194200D113603F
:102AC000224A1168194201D1012313600123204ACF
:102AD0001168194200D113601E4A1168194201D1D0
:102AE0000123136001231C4A1168194200D11360AD
:102AF0001A4A1168194201D1012313600123184AAF
:102B00001168194200D11360164A1168194201D1A7
:102B1000012313600123144A1168194200D1136084
:102B2000124A1168194201D1012313600123104A8E
:102B30001168194200D113600E4A1168194201D17F
:102B4000012313607047C046E8050020E40500201B
:102B5000E0050020DC050020D8050020D405002079
:102B6000D0050020CC050020C8050020C4050020A9
:102B7000C0050020BC0500200123244A1168194229
:102B800000D11360224A1168194201D10123136058
:102B90000123204A1168194200D113601E4A1168AE
:102BA000194201D10123136001231C4A1168194203
:102BB00000D113601A4A1168194201D10123136030
:102BC0000123184A1168194200D11360164A11688E
:102BD000194201D1012313600123144A11681942DB
:102BE00000D11360124A1168194201D10123136008
:102BF0000123104A1168194200D113600E4A11686E
:102C0000194201D1012313607047C0461806002005
:102C100014060020100600200C06002008060020E4
:102C20000406002000060020FC050020F805002016
:102C3000F4050020F0050020EC05002000224308E8
:102C40008B4274D303098B425FD3030A8B4244D374
:102C5000030B8B4228D3030C8B420DD3FF220902B6
:102C600012BA030C8B4202D31212090265D0030B75
:102C70008B4219D300E0090AC30B8B4201D3CB036B
:102C8000C01A5241830B8B4201D38B03C01A5241AD
:102C9000430B8B4201D34B03C01A5241030B8B42AF
:102CA00001D30B03C01A5241C30A8B4201D3CB029A
:102CB000C01A5241830A8B4201D38B02C01A52417F
:102CC000430A8B4201D34B02C01A5241030A8B4282
:102CD00001D30B02C01A5241CDD2C3098B4201D39A
:102CE000CB01C01A524183098B4201D38B01C01A18
:102CF000524143098B4201D34B01C01A524103098F
:102D00008B4201D30B01C01A5241C3088B4201D33D
:102D1000CB00C01A524183088B4201D38B00C01AEA
:102D2000524143088B4201D34B00C01A5241411A11
:102D300000D20146524110467047FFE701B500201E
:102D400000F00CF802BDC0460029F7D003B5FFF72C
:102D500075FF0EBC4243891A1847C0467047C046EB
:102D600008B5062000F04AF9012000F07FF90000C4
:102D7000054B10B5041C181E05D0131C02200A1C9C
:102D8000211C00E000BF10BD00000000014B1868CE
:102D90007047C046800500200E4B70B500251E1CF4
:102DA0000D4CE41AA410A54204D0AB00F358984788
:102DB0000135F8E7FFF72AFA084B00251E1C084CDE
:102DC000E41AA410A54204D0AB00F358984701358B
:102DD000F8E770BD840500208405002084050020EC
:102DE0009005002008B5034B011C186800F072F82C
:102DF00008BDC0468005002008B5034B011C1868BB
:102E000000F022F808BDC04680050020002310B560
:102E1000934203D0CC5CC4540133F9E710BD10B524
:102E2000814208D28B18984205D29B1A013A09D3E5
:102E3000995C8154FAE70023934203D0CC5CC454DC
:102E40000133F9E710BD000030B500293ED0043948
:102E50000B68002B00DAC9181D4A1368141C002BDC
:102E600002D14B60116031E099420DD208680A1816
:102E70009A4203D11368C3180B6053684B602160FA
:102E800024E08A4203D8131C5A68002AF9D11D682D
:102E90005C198C420BD10968691858181960904266
:102EA00014D110685268091819605A600EE08C42FB
:102EB00002D90C23036009E008680C18944203D17E
:102EC00014685268001908604A60596030BDC046F5
:102ED00020060020032370B5CC1C9C430834051C3D
:102EE0000C2C01D20C2405E0002C03DA0C2300206A
:102EF0002B6042E08C42F9D3204A1368101C191C45
:102F0000002913D00A68121B0DD40B2A02D90A60BB
:102F10008B181FE08B4202D15A6802601BE04A689E
:102F20005A600B1C17E00B1C4968E9E7144E336824
:102F3000002B03D1281C00F025F83060281C211C30
:102F400000F020F8031C421CD0D00322C61C96437C
:102F500086420AD11C60181C07210B301A1D8843B9
:102F6000821A0AD05142995007E0311A281C00F009
:102F700009F8431CBAD0331CECE770BD20060020D2
:102F80001C06002038B50023064C051C081C2360D5
:102F9000FFF708F9431C03D12368002B00D02B60F6
:102FA00038BDC0462406002038B51F2904D9162391
:102FB00003600120404220E0426C0D1C041C002AEA
:102FC00004D08B00D2181368002B08D1201C00F00D
:102FD00031F82A1C011C201C00F01AF80DE000201A
:102FE000012B0AD0591C03D117332360013004E0B0
:102FF0000024281C14609847201C38BD08B5034BDA
:10300000011C1868FFF7D0FF08BDC04680050020EE
:1030100038B50023064C051C081C111C236000F069
:103020001DF8431C03D12368002B00D02B6038BD52
:103030002406002008B500F009F808BD0023C25C92
:103040000133002AFBD1581E70470000582201208E
:10305000014B40421A60704724060020582201208C
:10306000014B40421A60704724060020FEE7C0462C
:103070000000000000000000C9100010F510001052
:103080000000000000000000B9110010E511001060
:103090000912001055120010B1120010FD1200109C
:1030A000766563746F723A3A5F4D5F696E736572ED
:1030B000745F6175780000000000000000000000EF
:1030C0003D140010791400109D14001055120010CA
:1030D000B1120010FD1200100000000000000000FE
:1030E000811F0010D91F0010F4FFFFFF0000000037
:1030F000C91F0010FD1F00100000000000000000AC
:103100004922001075220010307841352C30783576
:10311000413B307841352C307835413B3078413572
:103120002C3078354100000025733A205F5F706FC6
:10313000732028776869636820697320257A752968
:10314000203E20746869732D3E73697A65282920B2
:1031500028776869636820697320257A7529006279
:10316000617369635F737472696E673A3A61743A46
:10317000205F5F6E20287768696368206973202567
:103180007A7529203E3D20746869732D3E73697AF3
:103190006528292028776869636820697320257A63
:1031A00075290062617369635F737472696E673A4F
:1031B0003A636F70790062617369635F73747269F7
:1031C0006E673A3A636F6D70617265006261736930
:1031D000635F737472696E673A3A5F535F637265D7
:1031E0006174650062617369635F737472696E67AD
:1031F0003A3A65726173650062617369635F737403
:1032000072696E673A3A5F4D5F7265706C616365B3
:103210005F6175780062617369635F737472696E70
:10322000673A3A696E736572740062617369635FCD
:10323000737472696E673A3A7265706C61636500A7
:1032400062617369635F737472696E673A3A61733E
:103250007369676E0062617369635F737472696E2C
:10326000673A3A617070656E640062617369635FAA
:10327000737472696E673A3A726573697A6500624F
:10328000617369635F737472696E673A3A5F535F23
:10329000636F6E737472756374206E756C6C206EE0
:1032A0006F742076616C69640062617369635F7337
:1032B0007472696E673A3A62617369635F737472BC
:1032C000696E670062617369635F737472696E67C8
:1032D0003A3A737562737472004300000000000094
:1032E00000000000000000000000000000000000DE
:1032F00000000000000000000000000000000000CE
:1033000000000000000000000000000000000000BD
:1033100000000000000000000000000000000000AD
:10332000000000000000000000000000000000009D
:0C33300000000000000000000000000091
:10333C002C48874600000000000000000000000040
:10334C000000000000000000000000000000000071
:10335C0025488746000000000000000023488746EF
:10336C002348874623488746234887462348874671
:10337C002348874623488746234887462348874661
:10338C0000000000000000002148874621488746C5
:10339C002148874621488746214887462148874649
:1033AC0021488746214887460000000000000000A5
:1033BC0000000000000000001D4887461D4887469D
:1033CC001D4887461D48874600000000000000008D
:1033DC0000000000000000000000000000000000E1
:1033EC0000000000991000109910001099100010A6
:1033FC005D28001099100010991000109910001001
:10340C0099100010991000109910001099100010CC
:10341C0099100010991000109910001099100010BC
:10342C0099100010991000109910001099100010AC
:10343C00991000109910001099100010991000109C
:10344C0000000000DC320010FC3200101C330010B5
:10345C000000000000000000000000000000000060
:10346C00D932001000000000000000000000000035
:10347C000000000000000000000000000000000040
:10348C000000000000000000000000000000000030
:10349C000000000000000000000000000000000020
:1034AC00200500200D290010B52A0010792B0010E2
:0400000510001019BE
:00000001FF
